:020000040800F2
:100000000020002055070008A1070008A1070008EC
:1000100000000000000000000000000000000000E0
:10002000000000000000000000000000A107000820
:100030000000000000000000A10700087D05000886
:10004000A1070008A1070008A1070008A1070008F0
:10005000A1070008C1040008A1070008A1070008C3
:10006000A1070008A1070008A1070008A1070008D0
:10007000A1070008A1070008A1070008350500082E
:10008000A1070008A107000800000000A107000860
:10009000A1070008A1070008A1070008A1070008A0
:1000A000A1070008A1070008A1070008A107000890
:1000B000A107000800000000A107000800000000E0
:1000C0005FF808F180B588B000AF78600023FB616D
:1000D0000023BB6100237B6100233B610023FB60A5
:1000E000654B5A680C231340FB61FB69042B07D056
:1000F000082B09D0002B30D17B68604A1A6030E0B1
:100100007B685E4A1A602CE05B4B5A68F0239B03C5
:100110001340BB61584B5A6880235B0213407B61DC
:10012000BB699B0C0233BB617B69002B05D1BB69AA
:10013000534A5A437B681A6013E04F4BDA6A0F2325
:10014000134001333B614D48396900F0A9FE031C9F
:10015000BA695A437B681A6003E07B68474A1A60B1
:10016000C046454B5A68F0231340FB61FB691B09ED
:10017000FB61444AFB69D3181B78DBB2FB607B68E8
:100180001A68FB68DA407B685A603B4B5A68E02388
:10019000DB001340FB61FB691B0AFB61394AFB6909
:1001A000D3181B78DBB2FB607B685A68FB68DA40C7
:1001B0007B689A60304B1A6B80235B00134003D13D
:1001C0007B68314ADA6010E02B4B5A688023DB01F0
:1001D000134005D17B689B685A087B68DA6004E0AD
:1001E0007B689B689A087B68DA60234B1A6B402314
:1001F000134003D17B68254A1A6103E07B688022A3
:1002000012021A611C4B1A6B1023134003D17B6836
:100210001A4A5A6103E07B681A687B685A61164B78
:100220001A6B0323134004D17B689A687B689A6138
:100230001EE0114B1A6B03231340012B04D17B6882
:100240001A687B689A6113E00B4B1A6B0323134007
:10025000022B04D17B68802212029A6108E0064BCF
:100260001A6B03231340032B02D17B68034A9A6164
:10027000BD4608B080BDC0460010024000127A00A2
:1002800000093D0000000020809FD5001280000082
:1002900080B582B000AF78600A1CFB1C1A70FB1C92
:1002A0001B78002B06D0084B074A51697A680A432D
:1002B0005A6106E0044B044A52697968C9430A400E
:1002C0005A61BD4602B080BD0010024080B582B0C8
:1002D00000AF78600A1CFB1C1A70FB1C1B78002BFB
:1002E00006D0084B074AD1697A680A43DA6106E00A
:1002F000044B044AD2697968C9430A40DA61BD46B1
:1003000002B080BD00100240B0B582B000AF021C48
:100310003960FB1D1A70FB1D1B787F2B32D93049C9
:10032000FB1D1B781A1C0F231340083B98082C4A0E
:10033000FB1D1B781C1C0F232340083B9B08063326
:100340009B00D3185B68FA1D1278141C032222400C
:10035000D200FF24251C95402A1CD2431A403B683A
:100360009C01FF231C40FB1D1B781D1C03232B40FD
:10037000DB00251C9D402B1C1A43831D9B00CB18C2
:100380005A6029E0174BFA1D127852B292081549AB
:10039000F81D007840B28008C03080004158F81D38
:1003A0000078041C03202040C000FF24251C854049
:1003B000281CC043084039688C01FF210C40F91DFE
:1003C00009780D1C03212940C900251C8D40291CDA
:1003D0000143C0329200D150BD4602B0B0BDC0460C
:1003E00000ED00E000E100E080B582B000AF786091
:1003F0007A680E4B9A4201D9012312E00C4B7A68BD
:100400001202120A013A5A6001235B42181C0321AE
:10041000FFF77AFF064B00229A60054B07221A600D
:100420000023181CBD4602B080BDC046FFFFFF0080
:1004300010E000E080B500AF8023DB05181C002130
:1004400000F0ACFB8023DB05181C002100F090FBC2
:10045000184B00221A70184B00221A708023DB05FB
:10046000181C012100F09AFB9023DB05181C0121C8
:1004700000F0EAFA05E09023DB05181C012100F0EA
:10048000E3FA8023DB05181C00F07EFB031CA52B80
:10049000F1D99023DB05181C012100F0E3FA802339
:1004A000DB05181C002100F079FB044B00221A70B8
:1004B000BD4680BD1000002029000020280000203B
:1004C00080B500AF022000F069FC031C012B28D18D
:1004D000022000F083FC144B1B78DBB2002B0FD101
:1004E0008023DB05181C002100F042FB8023DB0584
:1004F000181C012100F052FB0B4B01221A7010E076
:100500008023DB05181C002100F048FB8023DB055D
:10051000181C00F039FB021C044B1A60044B01222A
:100520001A70BD4680BDC046280000202C00002067
:100530001000002080B500AF8023DB05181C0121CE
:1005400000F070FB031C012B11D18023DB05181C6C
:10055000012100F0A7FB8023DB05181C002100F01F
:100560001DFB044B01221A70034B01221A70BD4679
:1005700080BDC046290000201000002080B500AFDB
:10058000034B1B685A1C024B1A60BD4680BDC04617
:100590003000002090B587B000AF80239B02181C6C
:1005A0000121FFF775FE01200121FFF78FFE5E4B51
:1005B0001B68181CFA23990000F072FC031C181C1D
:1005C000FFF712FF594B01221A60584B00229A7113
:1005D000564B01221A71554B00225A71534B01227E
:1005E000DA719023DA05514B101C191C00F090F9B8
:1005F0004E4B02221A604D4B00221A719023DA05ED
:100600004A4B101C191C00F083F9494B00221A8137
:10061000474B00225A80464B02221A80444B01224B
:1006200052425A608023DA05414B101C191C00F01D
:1006300027FA8023DB05181C012100F033FB8023FF
:10064000DB05181C0121012200F0C8FA394B0222F7
:100650001A60384B01229A71364B00221A71354BC1
:1006600010225A71334B181C00F02CFB324B0F2216
:100670001A70314B01229A702F4B01225A702E4B67
:10068000181C00F0B7FB2C4B05221A702A4B0122D4
:100690009A70294B00225A70274B181C00F0AAFBB5
:1006A000264B181CFFF70EFD00237B6100233B61E6
:1006B000224B9B68181C00F093FE031C2048191C59
:1006C00000F03EFC031CFB601E4BBB6000230024BB
:1006D0003B607C60FFF7AEFEC0461B4B1B78DBB275
:1006E000002BFAD0194B1B78DBB2002B03D0184B30
:1006F00000221A60EEE7164B1B68181C00F070FE13
:10070000031C181C8021C90500F01AFC031C181CCE
:10071000F96800F03BFD031C3B61B868396900F0E3
:1007200035FD031C7B61D5E7140000204400002048
:100730003800002058000020340000206000002015
:10074000000040400080AB43100000202900002042
:100750002C0000200C488546002103E00B4B5B5821
:10076000435004310A480B4B42189A42F6D30A4AC6
:1007700002E0002313600432084B9A42F9D300F0E0
:1007800011F8FFF707FFFEE7002000203C150008E6
:100790000000002028000020280000207C0000200D
:1007A000FEE7000080B500AF1B4B1B4A1268012119
:1007B0000A431A60184B184A5168184A0A405A608E
:1007C000154B154A1168164A0A401A60124B124A14
:1007D0001168144A0A401A600F4B0F4A5168124AB6
:1007E0000A405A600C4B0C4AD26A0F218A43DA62E3
:1007F000094B094A116B0D4A0A401A63064B064A17
:10080000526B01218A435A63034B00229A6000F025
:100810000FF8BD4680BDC046001002400CB8FFF87E
:10082000FFFFF6FEFFFFFBFFFFFFC0FFACFEFFFF79
:1008300080B582B000AF00237B6000233B60314B6A
:10084000304A1268802149020A431A602D4B1A6807
:1008500080239B0213403B607B6801337B603B68D5
:10086000002B04D17A68A023DB019A42EED1254BFC
:100870001A6880239B02134002D001233B6001E0F1
:1008800000233B603B68012B38D11F4B11221A60BB
:100890001C4B1C4A52685A601A4B1A4A52685A60DA
:1008A000184B184A5168194A0A405A60154B154AA4
:1008B0005268882149030A435A60124B114A126850
:1008C000802149040A431A60C0460E4B1A688023EF
:1008D0009B041340F9D00B4B0A4A526803218A4308
:1008E0005A60084B074A526802210A435A60C046C0
:1008F000044B5A680C231340082BF9D1BD4602B0B3
:1009000080BDC0460010024000200240FFFFC0FF33
:1009100080B586B000AF7860396000237B6100232A
:100920003B610023FB6000237B6185E07B69012242
:10093000101C9840031C3B613B681B683A691340DC
:10094000FB60FA683B699A4273D13B681B79012BC3
:1009500003D03B681B79022B38D17B689B687A698E
:1009600052000321081C9040021CD2431A407B68AD
:100970009A607B689A683B685B79191C7B695B00AD
:10098000081C9840031C1A437B689A607B689B880C
:100990009BB27A6992B20121081C9040021C92B26B
:1009A000D24392B213409AB27B689A807B689B884C
:1009B0009AB23B689B79191C7B699BB2081C9840D2
:1009C000031C9BB213439AB27B689A807B681B68B6
:1009D0007A6952000321081C9040021CD2431A403D
:1009E0007B681A607B681A683B681B79191C7B69F5
:1009F0005B00081C9840031C1A437B681A607B68E4
:100A0000DB687A6992B252000321081C9040021CF4
:100A1000D2431A407B68DA607B68DA683B68DB792E
:100A2000191C7B695B00081C9840031C1A437B68F7
:100A3000DA607B6901337B617B690F2B00D875E736
:100A4000BD4606B080BDC04680B582B000AF7860BC
:100A50000A1CBB1C1A80BB1C1A887B689A61BD46A5
:100A600002B080BD80B582B000AF78600A1CBB1CAC
:100A70001A807B68BA1C12881A85BD4602B080BDF8
:100A800080B584B000AF786039603B1C0E33002223
:100A90001A803B1C0E337A6812881A807A682D4BB4
:100AA0009A4208D07A688023DB059A4203D07A689C
:100AB000294B9A4210D13B1C0E333A1C0E3212883D
:100AC00070218A431A803B6859883B1C0E333A1CBC
:100AD0000E3212880A431A807A68204B9A4210D04C
:100AE0003B1C0E333A1C0E3211881D4A0A401A80F4
:100AF0003B6819893B1C0E333A1C0E3212880A439C
:100B00001A807B683A1C0E3212881A803B685A6839
:100B10007B68DA623B681A887B681A857A680D4BB5
:100B20009A420BD07A680F4B9A4207D07A680E4BE4
:100B30009A4203D07A680D4B9A4204D13B689B7A63
:100B40001A1C7B681A867B6801229A82BD4604B013
:100B500080BDC046002C0140000400400010004051
:100B6000FFFCFFFF004001400044014000480140FD
:100B700080B582B000AF786039607B683A685A62AD
:100B8000BD4602B080BDC04680B582B000AF78607F
:100B90007B685B6A181CBD4602B080BD80B582B020
:100BA00000AF78600A1CFB1C1A70FB1C1B78002B22
:100BB00008D07B681B889BB2012213439AB27B68E2
:100BC0001A8007E07B681B889BB2012293439AB28C
:100BD0007B681A80BD4602B080BDC04680B582B039
:100BE00000AF7860BB1C19807B1C1A707B1C1B78C3
:100BF000002B09D07B689B899AB2BB1C1B881343CE
:100C00009AB27B689A810AE07B689B899BB2BA1C86
:100C10001288D24392B213409AB27B689A81BD4641
:100C200002B080BD80B584B000AF78600A1CBB1CE8
:100C30001A803B1C0F3300221A703B1C0C3300221D
:100C40001A803B1C0A3300221A807B681B8A9AB2E6
:100C50003B1C0C33B91C09880A401A807B689B89AD
:100C60009AB23B1C0A33B91C09880A401A803B1C03
:100C70000C331B88002B09D03B1C0A331B88002B2C
:100C800004D03B1C0F3301221A7003E03B1C0F33CE
:100C900000221A703B1C0F331B78181CBD4604B091
:100CA00080BDC04680B582B000AF78600A1CBB1C16
:100CB0001A80BB1C1B88DB439AB27B681A82BD4634
:100CC00002B080BD80B584B000AF78600023FB60C7
:100CD000314BFB607B689B79002B4DD02E4B2E4A0D
:100CE00011687A681268D2430A401A602A4B2A4A6D
:100CF00051687A681268D2430A405A607B681B794F
:100D0000FA68D318FB60FB68FA6811687A681268A1
:100D10000A431A60204B204A91687A681268D243CD
:100D20000A409A601C4B1C4AD1687A681268D24308
:100D30000A40DA607B685B79102B0ED1164B164A9D
:100D400091687A6812680A439A60134B124AD16814
:100D50007A6812680A43DA601BE00F4BFB607B681D
:100D60005B79FA68D318FB60FB68FA6811687A68E7
:100D700012680A431A600CE07B681B79FA68D31882
:100D8000FB60FB68FA6811687A681268D2430A400F
:100D90001A60BD4604B080BD0004014080B584B037
:100DA00000AF78603B1C0F3300221A700A4B5B695E
:100DB0007A68134004D03B1C0F3301221A7003E001
:100DC0003B1C0F3300221A703B1C0F331B78181C7E
:100DD000BD4604B080BDC0460004014080B582B06D
:100DE00000AF7860024B7A685A61BD4602B080BDA0
:100DF0000004014080B584B000AF78600023FB6040
:100E00007B689B78002B3CD0244B7A681278920840
:100E1000D2B2C0329200D358FB607B681B781A1C98
:100E200003231340DB00FF22101C9840031CDA430D
:100E3000FB681340FB607B685B789A01FF231A40D4
:100E40007B681B78191C03230B40DB00111C9940A5
:100E50000B1CFA681343FB60104B7A6812789208F7
:100E6000D2B2C0329200F968D1500C4B7A68127835
:100E7000111C1F220A400121081C9040021C1A600C
:100E800009E0064A7B681B78191C1F230B400121CF
:100E900099408023D150BD4604B080BD00E100E000
:100EA000002934D00123002210B488422CD301241D
:100EB0002407A14204D2814202D209011B01F8E7B2
:100EC000E400A14204D2814202D249005B00F8E76B
:100ED000884201D3401A1A434C08A04202D3001B97
:100EE0005C0822438C08A04202D3001B9C082243CA
:100EF000CC08A04202D3001BDC082243002803D008
:100F00001B0901D00909E3E7101C10BC7047002839
:100F100001D00020C04307B4024802A1401802904B
:100F200003BDC046190000000029F0D003B5FFF74B
:100F3000B9FF0EBC4243891A1847C0467047C046E5
:100F4000F0B55F4656464D464446F0B4460245006D
:100F5000C00F85B00F1C760A2D0E804641D0FF2DA4
:100F600026D08024240400212643F6007F3D8946B4
:100F70008B46F90F7C027800640A000E00918A46C5
:100F80003CD0FF2834D080231B041C430023E40002
:100F90007F380193009F4346019A7B4049469C4617
:100FA00011430F2900D971E0764F89007F58BF4661
:100FB000002E3ED10822022391469B46D9E75A468D
:100FC000341CC24601920199022937D0032900D16D
:100FD000CFE0012900D0ABE053460B4000220026B1
:100FE00032E0002E19D10421012289469346C0E740
:100FF000221C531E9A4102320192CBE7012701972E
:10100000002CC7D0201C00F03BFA431F9C407623E5
:101010005B420021181A0191BCE7301C00F030FA45
:101020007625431F9E406D4200232D1A99469B460C
:101030009FE70C23032199468B469AE7D446012368
:1010400067463B40FF2200267602D205700ADB0786
:101050001043184305B03CBC90469946A246AB46A7
:10106000F0BD80260023F603FF22EDE700220026D4
:10107000EAE78020C00306423BD0044239D1061C77
:1010800026437602760A009BFF22DDE7281A0390AA
:1010900076016401A64239D3361B1A2201230120AE
:1010A000311C5B007600002901DBB44201D8361BFD
:1010B0000343013A002AF3DC741EA641341C1C438E
:1010C000039A7F32002A27DD630704D00F232340D1
:1010D000042B00D00434270103D52B4B039A1C406A
:1010E0008032FE2A0BDD012361460B40FF220026E1
:1010F000AAE706437602760A4346FF22A4E7A40144
:1011000001236746660AD2B23B409DE7039F1B223C
:10111000013F03970023C2E77E23039F5B42DB1B53
:101120001B2B07DD012361460B40002200268BE7C5
:10113000D446C5E7221CDA40039B9E339C40231C07
:101140005C1EA34113435A0704D00F221A40042AFD
:1011500000D004335F0105D5012361460B40012215
:10116000002671E79E01624601231340760A0022A1
:101170006AE78026F60326437602760A5346FF2264
:1011800062E7C046BC140008FFFFFFF7F0B55F46FA
:1011900056464D464446F0B44402460083B00F1C08
:1011A000640A360EC50F002E41D0FF2E22D08023B8
:1011B0001B0400201C43E4007F3E82468046391C0D
:1011C0004B007F02C90F7F0A1B0E8B463BD0FF2BC3
:1011D00034D0802212041743FF007F3B00215A467F
:1011E0006A40019252460A430F2A63D87A48920015
:1011F00082589746002C3FD10822022392469846F7
:10120000DDE70195404602282AD1019A01251540C3
:10121000FF2300246402DB05600AED07184328431E
:1012200003B03CBC90469946A246AB46F0BD002CAC
:1012300027D10420012282469046C0E7391C4A1E6D
:1012400091410231CBE70121002FC8D0381C00F0BA
:1012500017F9431F9F4076235B421B1A0021BEE70C
:10126000032800D1AEE001284FD10198424610403A
:10127000C5B200230024CDE70C2303209A46804604
:101280009DE7201C00F0FCF87626431F9C40764228
:101290000023361A9A46984691E780240025E403F5
:1012A000FF23B7E75B463C1C01938846AAE73C1C3A
:1012B0008846A7E7250C24043A0C240C3F04F618B2
:1012C0003F0C211C231C794353436F435543FB18A8
:1012D0000A0C9B18B1469F4202D980225202AD18D7
:1012E00009041A04090C521894011B0C611E8C414C
:1012F000920EED181443AD012C43230105D50122B4
:1013000063080120144081441C434B467F33002B6B
:101310002DDD600704D00F222240042A00D00434BF
:10132000220103D52D4B1C404B468033FE2B17DD8D
:10133000019B01251D400024FF236BE78020C00393
:10134000044208D0074206D1041C3C436402640AEC
:101350005D46FF235EE704436402640AFF2359E706
:101360000198A4010125640ADBB2054052E77E23FF
:101370005B424A469B1A1B2B05DD019B01251D4044
:101380000024002346E7221CDA404B469E339C4053
:10139000231C5C1EA3411343580704D00F221A409C
:1013A000042A00D004335A0105D5019B01251D40B4
:1013B000002401232EE701989C010125640A0540C1
:1013C000002327E78027FF03019B3C43640201259C
:1013D0001D40640AFF231DE7FC140008FFFFFFF710
:1013E00010B5041E33D000F04BF89E231B1A962B29
:1013F00009DC083884406402640ADBB26402DB055D
:10140000600A184310BD992B0ADD0522121A211C0F
:10141000D1400A1C011C1B318C40611E8C411443BD
:10142000052801DD421F9440144A2240610704D080
:101430000F210C40042C00D0043251010AD59F2307
:10144000181AFF2816D09401640AC3B2D6E7002305
:101450000024D3E7D208FF2B03D05402640ADBB286
:10146000CCE7002A06D08024E40314436402640A13
:10147000FF23C3E7FF230024C0E7C046FFFFFFFBB5
:101480001C2101231B04984201D3000C10391B0AB4
:10149000984201D3000A08391B09984201D3000978
:1014A000043902A2105C40187047C04604030202CF
:1014B0000101010100000000000000008C10000884
:1014C0003E1000086C100008C60F00086C100008E1
:1014D000621000086C100008C60F00083E100008DB
:1014E0003E10000862100008C60F0008BE0F00087A
:1014F000BE0F0008BE0F000872100008B4120008EA
:10150000AE120008AE120008A4120008041200086F
:10151000041200089A120008A4120008041200081D
:101520009A12000804120008A4120008021200080F
:0C15300002120008021200083C13000820
:10153C00000000000102030401020304060708096D
:10154C0001000000006CDC02000000000000000044
:08155C0001020304060708095F
:0400000508000000EF
:00000001FF
